:1000000077C1000096C1000094C1000092C10000B9
:1000100090C100008EC100008CC100008AC10000A8
:1000200088C1000086C1000084C1000082C10000B8
:100030003EC600007EC100007CC100007AC1000005
:1000400078C1000076C1000074C1000072C10000D8
:1000500070C100006EC100006CC100006AC10000E8
:1000600068C100000C943A280C948C2862C10000EE
:1000700060C100005EC100005CC100005AC1000008
:1000800058C1000056C1000054C1000052C1000018
:100090000C94D0280C9422294CC100000C94783286
:1000A00048C1000046C1000044C1000042C1000038
:1000B00040C100003EC100003CC100003AC1000048
:1000C00038C1000036C1000034C100000C9466291C
:1000D0000C94B8292EC100000C94FC290C944E2AD3
:1000E00028C10000751F751F751FC01FCC1FF21F90
:1000F000751F751FC01FCC1F9A320A330A330A338B
:100100000A330A330A330A339A320A330A330A3378
:100110000A330A330A330A339C320A330A330A3366
:100120000A330A330A330A330A330A330A330A33E7
:100130000A330A330A330A339C320A330A330A3346
:100140000A330A330A330A330A330A330A330A33C7
:100150000A330A330A330A3306330A330A330A33BB
:100160000A330A330A330A33D1320A330A330A33E1
:100170000A330A330A330A330A330A330A330A3397
:100180000A330A330A330A33C5320A330A330A33CD
:100190000A330A330A330A33E9326E616E00696E3C
:1001A000660000407A10F35A00A0724E1809001041
:1001B000A5D4E80000E87648170000E40B540200DC
:1001C00000CA9A3B000000E1F50500008096980007
:1001D000000040420F000000A08601000000102730
:1001E00000000000E80300000000640000000000C0
:1001F0000A00000000000100000000002C76D888F2
:10020000DC674F0823DFC1DFAE59E1B1B796E5E304
:10021000E453C63AE651997696E8E6C28426EB891D
:100220008C9B62ED407C6FFCEFBC9C9F40F2BAA5BA
:100230006FA5F490055A2AF75C936B6CF9676DC152
:100240001BFCE0E40D47FEF520E6B500D0ED902E56
:100250000300943577050080841E080000204E0AB4
:10026000000000C80C333333330F986E12831141F2
:10027000EF8D2114893BE65516CFFEE6DB18D184BD
:100280004B381BF77C1D901DA4BBE42420328472E4
:100290005E228100C9F124ECA1E53D27CF93DF93D5
:1002A0001F921F92CDB7DEB79A8389830E9464178D
:1002B00080914C07823008F00FD40E94F820F6CFCE
:1002C000CF93DF9300D01F921F92CDB7DEB79D83EF
:1002D0008C83CE0103960E94631E9A8389832B81AF
:1002E00089819A81622F0E940E1E0E94341FF1CFD5
:1002F00011241FBECFEFD1E2DEBFCDBF00E00CBFA7
:1003000017E0A0E0B2E0EAEFF6E700E00BBF02C0C2
:1003100007900D92AA34B107D9F729E0AAE4B7E013
:1003200001C01D92A03DB207E1F70E9478250C9410
:100330007B3B66CECF93DF931F92CDB7DEB7898329
:1003400088E091E028E031E0F9012081207FFC0184
:10035000208388E091E028E031E0F9012081322F0C
:1003600029812F70232BFC01208300000F90DF9147
:10037000CF910895CF93DF931F92CDB7DEB78983D6
:1003800088E091E028E031E0F9012081207FFC0144
:10039000208300000F90DF91CF910895CF93DF93DA
:1003A00000D01F92CDB7DEB79C838B830E9454137D
:1003B0008B819C810E9423389A8389830E946113D8
:1003C00089819A81892B11F40E94002189819A8167
:1003D0000F900F900F900F90DF91CF910895CF93D2
:1003E000DF931F921F92CDB7DEB79A8389838981ED
:1003F0009A81892B41F00E94541389819A810E942D
:10040000BB380E94611300000F900F90DF91CF91D5
:100410000895CF93DF931F921F92CDB7DEB79A83D3
:10042000898389819A819C012D5F3F4F89819A81BF
:10043000FC013283218389819A812FEF3FEFFC01F8
:100440003483238389819A819C012D5F3F4F898169
:100450009A81FC013683258389819A819C012D5FD5
:100460003F4F89819A81FC013087278389819A8156
:10047000FC01108200000F900F90DF91CF91089542
:10048000CF93DF931F921F92CDB7DEB79A838983F4
:1004900089819A81FC011186108600000F900F90CF
:1004A000DF91CF910895CF93DF9300D000D0CDB7E7
:1004B000DEB79C838B837E836D838B819C81FC0163
:1004C000818192819A8389838D819E8129813A815C
:1004D000FC013383228389819A81FC012481358147
:1004E0008D819E81FC013583248389819A81FC0161
:1004F000848195812D813E81FC0133832283898112
:100500009A812D813E81FC01358324838D819E81DA
:100510002B813C81FC01318720878B819C81FC01F0
:10052000808121E0280F8B819C81FC0120830000C9
:1005300026960FB6F894DEBF0FBECDBFDF91CF91E8
:100540000895CF93DF93CDB7DEB728970FB6F89411
:10055000DEBF0FBECDBF9E838D8378876F838F8173
:100560009885FC01808191819C838B838B819C8108
:10057000019641F48D819E81FC01878190859A834B
:1005800089831AC08D819E8103969A83898307C0CF
:1005900089819A81FC01828193819A8389838981EF
:1005A0009A81FC0182819381FC01208131818B81C0
:1005B0009C818217930760F789819A81FC012281CF
:1005C00033818F819885FC01338322838F819885C5
:1005D000FC01828193812F813885FC01358324833E
:1005E0008F81988529813A81FC0135832483898113
:1005F0009A812F813885FC01338322838F819885EE
:100600002D813E81FC01318720878D819E81FC01F7
:10061000808121E0280F8D819E81FC0120830000D4
:1006200028960FB6F894DEBF0FBECDBFDF91CF91F5
:100630000895CF93DF9300D01F92CDB7DEB79C8390
:100640008B838B819C81FC01808591859A83898332
:100650008B819C81FC01828193812B813C81F901FA
:1006600024813581FC01358324838B819C81FC01AD
:10067000848195812B813C81F90122813381FC01A8
:100680003383228389819A81FC01218132818B818C
:100690009C812817390751F48B819C81FC012481AE
:1006A000358189819A81FC01328321838B819C81F0
:1006B000FC011186108689819A81FC0180812FEFCF
:1006C000280F89819A81FC01208389819A81FC010C
:1006D00080810F900F900F900F90DF91CF91089530
:1006E000CF93DF93CDB7DEB728970FB6F894DEBF70
:1006F0000FBECDBF9C838B837E836D8358874F83D2
:100700008B819C8121E1FC0120838B819C8101975D
:100710009C838B838B819C8122E2FC0120838B81D3
:100720009C8101979C838B838B819C8123E3FC01BB
:1007300020838B819C8101979C838B838D819E81FB
:100740009A83898329818B819C81FC0120838B8101
:100750009C8101979C838B8389819A81892F99271A
:100760009A83898329818B819C81FC0120838B81E1
:100770009C8101979C838B838B819C81FC011082DF
:100780008B819C8101979C838B838B819C81FC0155
:1007900010828B819C8101979C838B838B819C81B0
:1007A00020E8FC0120838B819C8101979C838B83B3
:1007B0008B819C81FC0110828B819C8101979C83A1
:1007C0008B838B819C81FC0110828B819C810197A2
:1007D0009C838B838B819C81FC0110828B819C810B
:1007E00001979C838B838B819C8122E0FC01208379
:1007F0008B819C8101979C838B838B819C8123E0DF
:10080000FC0120838B819C8101979C838B838B814E
:100810009C8124E0FC0120838B819C8101979C8337
:100820008B838B819C8125E0FC0120838B819C81C3
:1008300001979C838B838B819C8126E0FC01208324
:100840008B819C8101979C838B838B819C8127E08A
:10085000FC0120838B819C8101979C838B838B81FE
:100860009C8128E0FC0120838B819C8101979C83E3
:100870008B838B819C8129E0FC0120838B819C816F
:1008800001979C838B838B819C8120E1FC012083D9
:100890008B819C8101979C838B838B819C8121E13F
:1008A000FC0120838B819C8101979C838B838B81AE
:1008B0009C8122E1FC0120838B819C8101979C8398
:1008C0008B838B819C8123E1FC0120838B819C8124
:1008D00001979C838B838B819C8124E1FC01208385
:1008E0008B819C8101979C838B838B819C8125E1EB
:1008F000FC0120838B819C8101979C838B838B815E
:100900009C8126E1FC0120838B819C8101979C8343
:100910008B838B819C8127E1FC0120838B819C81CF
:1009200001979C838B838B819C8128E1FC01208330
:100930008B819C8101979C838B838B819C8129E196
:10094000FC0120838B819C8101979C838B838B810D
:100950009C8120E2FC0120838B819C8101979C83F8
:100960008B838B819C8121E2FC0120838B819C8184
:1009700001979C838B838B819C8122E2FC012083E5
:100980008B819C8101979C838B838B819C8123E24B
:10099000FC0120838B819C8101979C838B838F81B9
:1009A00098859A83898329818B819C81FC0120838E
:1009B0008B819C8101979C838B8389819A81892F6C
:1009C00099279A83898329818B819C81FC012083CB
:1009D0008B819C8101979C838B838B819C8126E2F8
:1009E000FC0120838B819C8101979C838B838B816D
:1009F0009C8127E2FC0120838B819C8101979C8351
:100A00008B838B819C8128E2FC0120838B819C81DC
:100A100001979C838B838B819C8129E2FC0120833D
:100A20008B819C8101979C838B838B819C8120E3AC
:100A3000FC0120838B819C8101979C838B838B811C
:100A40009C8121E3FC0120838B819C8101979C8305
:100A50008B838B819C8128960FB6F894DEBF0FBEE6
:100A6000CDBFDF91CF910895CF93DF93CDB7DEB7A0
:100A7000FFD0A0914A07B0914B07CD91CDBFDD913A
:100A8000DEBFFF91EF91DF91CF91BF91AF919F9129
:100A90008F917F916F915F914F913F912F911F9116
:100AA0000F91FF90EF90DF90CF90BF90AF909F900D
:100AB0008F907F906F905F904F903F902F901F90FE
:100AC0000F900CBE0F900BBE0F900FBE0F900895AD
:100AD00081E0DF91CF9108950F920FB6F8940F92B5
:100AE0000BB60F920CB60F921F9211242F923F92C9
:100AF0004F925F926F927F928F929F92AF92BF922E
:100B0000CF92DF92EF92FF920F931F932F933F9319
:100B10004F935F936F937F938F939F93AF93BF9305
:100B2000CF93DF93EF93FF93A0914A07B0914B07C8
:100B30000DB60D920EB60D920E942915A0914A078E
:100B4000B0914B07CD91CDBFDD91DEBFFF91EF910D
:100B5000DF91CF91BF91AF919F918F917F916F91D5
:100B60005F914F913F912F911F910F91FF90EF90C7
:100B7000DF90CF90BF90AF909F908F907F906F90BD
:100B80005F904F903F902F901F900F900CBE0F9052
:100B90000BBE0F900FBE0F90089500000F920FB67E
:100BA000F8940F920BB60F920CB60F921F9211246D
:100BB0002F923F924F925F926F927F928F929F926D
:100BC000AF92BF92CF92DF92EF92FF920F931F935B
:100BD0002F933F934F935F936F937F938F939F9345
:100BE000AF93BF93CF93DF93EF93FF93A0914A0707
:100BF000B0914B070DB60D920EB60D9283E590E0C5
:100C0000FC0110820E940E14882311F00E94291505
:100C1000A0914A07B0914B07CD91CDBFDD91DEBFCA
:100C2000FF91EF91DF91CF91BF91AF919F918F9104
:100C30007F916F915F914F913F912F911F910F91F4
:100C4000FF90EF90DF90CF90BF90AF909F908F90EC
:100C50007F906F905F904F903F902F901F900F90DC
:100C60000CBE0F900BBE0F900FBE0F9008950000AA
:100C7000CF93DF93CDB7DEB7A89580E090E0887082
:100C80009927892B11F080EE01C080EC90E09770DD
:100C9000892B982F88E10FB6F894A895809360006F
:100CA0000FBE909360000000DF91CF91089576DF32
:100CB00018950000CF93DF9300D01F921F92CDB7FD
:100CC000DEB79C838B836D838B819C819A83898320
:100CD0000FB6F8940F9289819A81FC0180819181ED
:100CE00029813A81F901238D422F50E029813A81EF
:100CF000F901248D222F30E0429FB001439F700DF7
:100D0000529F700D11249B01280F391F89819A81F0
:100D1000FC013583248389819A81FC01128E8981AB
:100D20009A81FC012081318189819A81FC01338380
:100D3000228389819A81FC012081318189819A8174
:100D4000FC01838D882F90E0BC016150710989817D
:100D50009A81FC01848D482F50E0649FC001659FFB
:100D6000900D749F900D1124280F391F89819A814D
:100D7000FC013783268389819A812FEFFC01258F1F
:100D800089819A812FEFFC01268F8D81882379F448
:100D900089819A81FC018085882389F089819A81E3
:100DA00008960E941B16882351F096DE08C08981A0
:100DB0009A8108962EDB89819A8141962ADB0F90D1
:100DC0000FBE81E00F900F900F900F900F90DF916A
:100DD000CF9108950F931F93CF93DF93CDB7DEB7D5
:100DE00029970FB6F894DEBF0FBECDBF8F836887FB
:100DF00049878885882319F41A8219820FC08F8148
:100E0000482F50E08885282F30E0429FC001439F43
:100E1000900D529F900D11249A83898389819A8124
:100E20008196BCDA9C838B838B819C81892B99F082
:100E30008B819C819E838D838D819E8181969E83F3
:100E40008D832B813C818D819E8189012985AC0117
:100E500068858F810DD08B819C8129960FB6F8947F
:100E6000DEBF0FBECDBFDF91CF911F910F910895CF
:100E70000F931F93CF93DF93CDB7DEB727970FB6AE
:100E8000F894DEBF0FBECDBF89836A835C834B833A
:100E90002D831F830E838A81882341F48E819F8155
:100EA0002E813F81FC013183208307C08E819F8189
:100EB0002B813C81FC01318320838E819F8129819C
:100EC000FC01238F8E819F812A81FC01248F8E81DA
:100ED0009F8161E0EFDE8E819F812D81FC0120A347
:100EE000000027960FB6F894DEBF0FBECDBFDF918E
:100EF000CF911F910F910895CF93DF931F921F926F
:100F0000CDB7DEB79A83898389819A81892BB1F025
:100F100089819A81FC011582148289819A81FC0160
:100F20001182108289819A81FC01168289819A81BD
:100F300020E040E050E060E070E024D000000F903E
:100F40000F90DF91CF910895CF93DF9300D01F9240
:100F50001F92CDB7DEB78D8381E089831A824D81E0
:100F60006A81898137DF9C838B838B819C81C4DF7D
:100F70008B819C810F900F900F900F900F90DF91BD
:100F8000CF910895CF93DF93CDB7DEB72E970FB6ED
:100F9000F894DEBF0FBECDBF998788877B876A87AD
:100FA0005D874C872E871982888599859B838A83E4
:100FB0000FB6F8940F928A819B81FC01228D8A8161
:100FC0009B81FC01838D281718F08E858230F9F4FF
:100FD0002A853B858A819B814E85B9017FD28C838E
:100FE0008A819B81FC018189882349F08A819B81C8
:100FF00041960E941B16882331F06EDD04C08C815F
:10100000882309F069DD0F900FBE81E05BC08C85FD
:101010009D85892B21F40F900FBE80E053C08981FC
:10102000882331F4CE0105960E94881681E08983D9
:101030000F900FBE0E9454130FB6F8940F928A813E
:101040009B81FC01858D8F3F21F48A819B81FC016E
:10105000158E8A819B81FC01868D8F3F21F48A81C8
:101060009B81FC01168E0F900FBE9E01245F3F4FA7
:10107000CE010596B9010E94A5168823E9F48A815C
:101080009B81C8D3882391F02C853D858A819B81E3
:101090000896B9010E94CD158A819B8140D30E9498
:1010A0006113882309F084CF17DD82CF8A819B8169
:1010B00036D30E9461137CCF8A819B8130D30E94FA
:1010C000611380E02E960FB6F894DEBF0FBECDBF41
:1010D000DF91CF910895CF93DF93CDB7DEB72C97F3
:1010E0000FB6F894DEBF0FBECDBF9F838E83798786
:1010F00068875B874A872C878E819F819B838A8341
:101100001C828A819B81FC01228D8A819B81FC014A
:10111000838D281718F08C85823081F58A819B8118
:10112000FC01868D8D83288539858A819B814C853C
:10113000B901D4D18D818F3FB9F48A819B81FC01A3
:1011400081898823C1F08A819B8141960E941B1668
:10115000882389F08A859B85892B69F08A859B8500
:1011600021E0FC01208307C08D818F5F282F8A81B9
:101170009B81FC01268F81E0898301C019828981CE
:101180002C960FB6F894DEBF0FBECDBFDF91CF9186
:101190000895CF93DF93CDB7DEB72D970FB6F894B0
:1011A000DEBF0FBECDBF998788877B876A875D8743
:1011B0004C871982888599859B838A830FB6F8941A
:1011C0000F928A819B81FC01828D8C838C81882384
:1011D000F9F02A853B858A819B81B9014FD28C81A8
:1011E0002FEF280F8A819B81FC01228F8A819B81AE
:1011F000FC018085882341F08A819B8108960E94AA
:101200001B16882309F068DC0F900FBE81E061C0D7
:101210008C859D85892B21F40F900FBE80E059C0ED
:101220008981882331F4CE0105960E94881681E0D9
:1012300089830F900FBE0E9454130FB6F8940F923B
:101240008A819B81FC01858D8F3F21F48A819B815E
:10125000FC01158E8A819B81FC01868D8F3F21F4D4
:101260008A819B81FC01168E0F900FBE9E01245F28
:101270003F4FCE010596B9010E94A5168823E9F4D7
:101280008A819B81AAD2882391F02C853D858A8111
:101290009B814196B9010E94CD158A819B813FD2E5
:1012A0000E946113882309F089CF16DC87CF8A81D9
:1012B0009B8135D20E94611381CF8A819B812FD27D
:1012C0000E9461138A819B8188D2882309F476CF9A
:1012D00080E02D960FB6F894DEBF0FBECDBFDF9134
:1012E000CF910895CF93DF93CDB7DEB72D970FB68B
:1012F000F894DEBF0FBECDBF9B878A877D876C8742
:1013000019828A859B859C838B831A820FB6F894F9
:101310000F928B819C81FC01828D8D838D8188232E
:1013200041F18D812FEF280F8B819C81FC01228F51
:101330008B819C81FC0180819181892B41F40E94E9
:10134000D3199C018B819C81FC01358324838B8183
:101350009C81FC018085882341F08B819C810896CB
:101360000E941B16882309F0B7DB0F900FBE81E0A7
:101370008AC08C859D85892B21F40F900FBE80E05B
:1013800082C08981882331F4CE0107960E94881695
:1013900081E089830F900FBE0E9454130FB6F8941A
:1013A0000F928B819C81FC01858D8F3F21F48B8175
:1013B0009C81FC01158E8B819C81FC01868D8F3F69
:1013C00021F48B819C81FC01168E0F900FBE9E0133
:1013D000245F3F4FCE010796B9010E94A5168823CE
:1013E00009F031C08B819C81F8D1882331F18B8148
:1013F0009C81FC0180819181892B69F40FB6F8945E
:101400000F928B819C81FC01848195810E940A1836
:101410008A830F900FBE2C853D858B819C814196E0
:10142000B9010E94CD158B819C8179D10E946113F5
:10143000882309F06BCF50DB69CF8B819C816FD102
:101440000E94611363CF8B819C8169D10E946113DB
:101450008B819C81C2D1882309F458CF8A8188234B
:1014600089F00FB6F8940F928B819C8115D08E83F2
:101470008B819C81FC01848195816E810E9433194E
:101480000F900FBE80E02D960FB6F894DEBF0FBE12
:10149000CDBFDF91CF910895CF93DF9300D0CDB72B
:1014A000DEB79B838A838A819B81FC0181898823A3
:1014B00069F08A819B81FC0186899789FC01808182
:1014C0009181982F84E0891B898301C019828981C9
:1014D0000F900F900F90DF91CF910895CF93DF93EE
:1014E000CDB7DEB727970FB6F894DEBF0FBECDBFDE
:1014F0009C838B837E836D834F8319828B819C8138
:10150000FC01828D8A838B819C81FC01848D8823E0
:10151000B1F48B819C81FC0180819181892B09F040
:101520009CC08B819C81FC01848195810E94B618AE
:1015300089838B819C81FC01158214828EC08F81EE
:101540008823D9F58B819C81FC01848D482F50E044
:101550008B819C81FC01828193812D813E81B90127
:101560000E942B3A8B819C81FC01228133818B81EB
:101570009C81FC01848D882F90E0280F391F8B817E
:101580009C81FC01338322838B819C81FC0122811D
:1015900033818B819C81FC018481958128173907D7
:1015A00008F45BC08B819C81FC01208131818B819F
:1015B0009C81FC013383228350C08B819C81FC0180
:1015C000848D482F50E08B819C81FC01868197811E
:1015D0002D813E81B9010E942B3A8B819C81FC01B7
:1015E000268137818B819C81FC01848D882F90E03E
:1015F000919581959109280F391F8B819C81FC0160
:10160000378326838B819C81FC01268137818B81E6
:101610009C81FC018081918128173907A8F48B8176
:101620009C81FC01248135818B819C81FC01848D0E
:10163000882F90E0919581959109280F391F8B8112
:101640009C81FC01378326838F81823031F48A812B
:10165000882319F08A8181508A838A8121E0280FAA
:101660008B819C81FC01228F898127960FB6F8948B
:10167000DEBF0FBECDBFDF91CF910895CF93DF9333
:1016800000D01F92CDB7DEB79A8389837C836B83AA
:1016900089819A81FC01848D8823C9F189819A818D
:1016A000FC012681378189819A81FC01848D882FF4
:1016B00090E0280F391F89819A81FC0137832683A6
:1016C00089819A81FC012681378189819A81FC0177
:1016D000848195812817390750F089819A81FC010E
:1016E0002081318189819A81FC0137832683898118
:1016F0009A81FC01848D482F50E089819A81FC01F8
:10170000268137818B819C81B9010E942B3A000090
:101710000F900F900F900F90DF91CF910895CF937E
:10172000DF9300D01F92CDB7DEB79C838B830FB6BB
:10173000F8940F928B819C81FC01868D898312C065
:101740008B819C81FC018189882381F08B819C8124
:1017500041960E941B16882311F00E941717898159
:1017600081508983898118165CF301C000008B8148
:101770009C812FEFFC01268F0F900FBE0FB6F894BF
:101780000F928B819C81FC01858D8A8312C08B8195
:101790009C81FC018085882381F08B819C81089647
:1017A0000E941B16882311F00E9417178A8181500E
:1017B0008A838A8118165CF301C000008B819C81AA
:1017C0002FEFFC01258F0F900FBE00000F900F90A0
:1017D0000F900F90DF91CF910895CF93DF9300D0BA
:1017E000CDB7DEB79B838A830FB6F8940F928A81B8
:1017F0009B81FC01828D882319F481E0898301C0DB
:1018000019820F900FBE89810F900F900F90DF917A
:10181000CF910895CF93DF9300D0CDB7DEB79B83F0
:101820008A830FB6F8940F928A819B81FC01228DE6
:101830008A819B81FC01838D281719F481E08983BB
:1018400001C019820F900FBE89810F900F900F90E9
:10185000DF91CF910895CF93DF93CDB7DEB7279770
:101860000FB6F894DEBF0FBECDBF9C838B837E8303
:101870006D834F838B819C819A8389830FB6F89403
:101880000F9289819A81FC01858D8F3F21F4898196
:101890009A81FC01158E89819A81FC01868D8F3F8A
:1018A00021F489819A81FC01168E0F900FBE8981E7
:1018B0009A81FC01828D882349F489819A8141961D
:1018C0002D813E814F81B9010E94EF1589819A8156
:1018D00026DF000027960FB6F894DEBF0FBECDBFFF
:1018E000DF91CF9108950F93CF93DF93CDB7DEB7FC
:1018F00028970FB6F894DEBF0FBECDBF9D838C83B3
:101900007F836E8348878885813019F481E08983DD
:1019100001C019828E819F81892B21F481E090E0A2
:101920009F838E838C819D8101969D838C838C8186
:101930009D8140960E94CE019B838A838A819B81F0
:10194000892B69F08A819B81BC01605F7F4F2E816A
:101950003F814C815D818A819B81098130D48A815C
:101960009B8128960FB6F894DEBF0FBECDBFDF91E6
:10197000CF910F9108950F93CF93DF9300D000D0B4
:10198000CDB7DEB79E838D838D819E819B838A83B5
:1019900019828A819B81DC011F968C918C830FB602
:1019A000F8940F928A819B81FC0180859185892B17
:1019B00071F58A819B81DC011A968D919C911B9710
:1019C000892B29F58A819B81DC011E96EC918A8105
:1019D0009B81DC0116962D913C9117978A819B8102
:1019E000DC0114964D915C9115978A819B81DC01F5
:1019F0001C966D917C911D978A819B810E2FDFD360
:101A000081E089838A819B812C81FC0127870F904B
:101A10000FBE898126960FB6F894DEBF0FBECDBFEC
:101A2000DF91CF910F910895CF93DF9300D000D035
:101A3000CDB7DEB79E838D838D819E819C838B8302
:101A40008B819C81FC01248135818B819C81FC01EF
:101A500080819181820F931F9A8389838B819C81DE
:101A6000FC018281938129813A81A901481B590B8C
:101A7000CA019A83898389819A8101979A8389838C
:101A80008B819C81FC012481358189819A81821717
:101A9000930768F08B819C81FC0184819581298169
:101AA0003A81A901481B590BCA019A83898389810C
:101AB0009A8126960FB6F894DEBF0FBECDBFDF9198
:101AC000CF910895EF92FF920F931F93CF93DF93DF
:101AD000CDB7DEB761970FB6F894DEBF0FBECDBFAE
:101AE0009B878A877D876C875F874E87398B288B9A
:101AF0008A859B859C838B838E859F859A8389832A
:101B00008B819C81FC018685882F90E081709927CC
:101B1000892B29F089819A8102969A8389838B8106
:101B20009C8182DF9E838D83E981FA812D813E81B4
:101B30004E855F856C857D858B819C818F013ED034
:101B400098878F838F819885892B49F18B819C8120
:101B5000F3D29C018B819C81FC018681978128179F
:101B60003907E8F019868B819C81FC01808591857D
:101B7000892BA9F08B819C81FC0180859185288926
:101B80003989790100E010E020E040E050E0BA013E
:101B90000E94731B8B819C81FC01118610868F81B2
:101BA000988561960FB6F894DEBF0FBECDBFDF916A
:101BB000CF911F910F91FF90EF9008950F931F9376
:101BC000CF93DF93CDB7DEB761970FB6F894DEBF42
:101BD0000FBECDBF998788877B876A875D874C87D3
:101BE0003F872E87198B088B8E859F85892B11F453
:101BF000198233C088859985FC018685882F90E0FD
:101C000081709927892BA9F481E089838C859D8532
:101C10009D838C838E859F859F838E832C813D81C0
:101C20008E819F812817390708F4C9019D878C8709
:101C300014C02E853F85888999892817390760F057
:101C400081E089839E01245F3F4F8885998542E02A
:101C500050E0B9013BD101C019828981882359F034
:101C60004C855D852A853B8588859985B9012ED16E
:101C70009B838A8302C01B821A828A819B81619620
:101C80000FB6F894DEBF0FBECDBFDF91CF911F918D
:101C90000F910895EF92FF920F931F93CF93DF93CD
:101CA000CDB7DEB760970FB6F894DEBF0FBECDBFDD
:101CB0009A8789877C876B875E874D87388B2F87CC
:101CC00089859A8598878F831A8219828F81988552
:101CD000FC018685882F90E081709927892B29F057
:101CE00082E090E09E838D8302C01E821D828F85DC
:101CF0009889892B09F43CC00FB6F8940F928F8114
:101D000098851AD29C838B832B813C818D819E8107
:101D10008217930760F080E090E00E946E1C0E94A2
:101D2000DE179C018F819885FC01318720870F90F9
:101D30000FBE2B813C818D819E8182179307E8F035
:101D40008F8598897C0100E010E020E030E0A90157
:101D500060E070E0CB010E94ED198F819885FC0155
:101D6000118610868F819885E7D19C838B8305C06F
:101D70008F819885E1D19C838B832B813C818D81E0
:101D80009E818217930768F5ED81FE812B813C814E
:101D90004D855E856B857C858F8198858F0130D0E0
:101DA0009A83898389819A81892BD9F07DD48F8107
:101DB0009885FC0182859385892B91F08F81988588
:101DC000FC018285938500E010E020E040E050E0D7
:101DD000BA010E94921A8F819885FC01138612869F
:101DE00070D489819A8160960FB6F894DEBF0FBED9
:101DF000CDBFDF91CF911F910F91FF90EF9008958C
:101E00000F931F93CF93DF93CDB7DEB762970FB6D3
:101E1000F894DEBF0FBECDBF9A8789877C876B871A
:101E20005E874D87388B2F871A8B098B89899A8912
:101E3000892B81F189859A85FC01808191819C8320
:101E40008B832F85388949895A89BE01695F7F4F05
:101E500089859A85CAD08F8198859A8389832F85B1
:101E6000388989899A89A901481B590BCA01988B1D
:101E70008F8729813A818D859E858217930770F41B
:101E800089859A852B813C81FC01318320831A82CC
:101E9000198204C08D859E859A8389832F85388910
:101EA00049815A816B857C8589859A859ED09E83E0
:101EB0008D838D819E8162960FB6F894DEBF0FBE32
:101EC000CDBFDF91CF911F910F910895CF93DF93F5
:101ED000CDB7DEB72E970FB6F894DEBF0FBECDBFDD
:101EE0009A8789877C876B875E874D8789859A85E6
:101EF000FC01828193819A83898389859A85FC017B
:101F00002481358189819A81A901481B590BCA0115
:101F10009C838B838D859E859E838D832B813C81C5
:101F20008D819E812817390708F4C90198878F830E
:101F300089859A85FC012485358589819A81820F5E
:101F4000931F4F8158852B853C85B9010E942B3A00
:101F50002D853E858F81988582179307A8F42D855E
:101F60003E858F819885A901481B590B2B853C859F
:101F70008F819885280F391F89859A85FC01848572
:101F80009585B9010E942B3A29813A818D859E85DC
:101F9000820F931F9A83898389859A85FC01248106
:101FA000358189819A818217930768F089859A859E
:101FB000FC018481958129813A81A901481B590B33
:101FC000CA019A83898389859A8529813A81FC018E
:101FD000338322838D859E852E960FB6F894DEBFBF
:101FE0000FBECDBFDF91CF910895CF93DF93CDB7D3
:101FF000DEB766970FB6F894DEBF0FBECDBF988BE5
:102000008F877A8B698B5C8B4B8B3E8B2D8B8D896D
:102010009E899C838B838B899C899E838D832B8156
:102020003C818D819E812817390708F4C901988762
:102030008F838F819885892B09F473C08F85988948
:10204000FC01808191819A8389838F859889FC0125
:102050002481358189819A81A901481B590BCA01C4
:102060009A8789878F8198859C878B8729853A8570
:102070008B859C852817390708F4C9019E878D87B1
:102080008F859889FC012485358589819A81280F5F
:10209000391F4D855E8589899A89B9010E942B3A3D
:1020A0002F8138858D859E8582179307A0F42F8117
:1020B00038858D859E85A901481B590B8F85988988
:1020C000FC016485758529893A898D859E85820FF5
:1020D000931F0E942B3A29813A818F819885820F24
:1020E000931F9A8389838F859889FC012481358188
:1020F00089819A818217930768F08F859889FC01FE
:102100008481958129813A81A901481B590BCA0113
:102110009A8389838F85988929813A81FC0131834B
:1021200020838F81988566960FB6F894DEBF0FBE28
:10213000CDBFDF91CF910895CF93DF9300D01F9251
:10214000CDB7DEB79C838B838B819C81FC0124817E
:1021500035818B819C81FC0182819381820F931F49
:102160009A8389838B819C81FC0180819181298163
:102170003A81A901481B590BCA019A8389838B8133
:102180009C81FC012481358189819A818217930782
:1021900068F08B819C81FC018481958129813A8141
:1021A000A901481B590BCA019A83898389819A81A5
:1021B0000F900F900F900F90DF91CF9108950F9394
:1021C000CF93DF93CDB7DEB729970FB6F894DEBF74
:1021D0000FBECDBF9A8389837C836B835E834D83DF
:1021E00038872F83098789819A8140E150E060E038
:1021F00070E00E94343A89819A812B813C81FC01F4
:102200003587248789819A812D813E81FC01358320
:10221000248389819A812F813885FC013783268325
:1022200089819A812985FC012687000029960FB6AD
:10223000F894DEBF0FBECDBFDF91CF910F9108950F
:10224000AF92BF92CF92DF92EF92FF920F93CF9314
:10225000DF93CDB7DEB760970FB6F894DEBF0FBE41
:10226000CDBF9F838E83798768875B874A873D8749
:102270002C870E87F88AEF868A859B850E94CE017F
:102280009D838C838C819D81892BB9F08CE290E0B9
:102290000E94CE019A83898389819A81892B41F09A
:1022A00089819A812C813D81FC01308F278B07C069
:1022B0008C819D810E94EF0102C01A82198289815E
:1022C0009A81892BC1F0A981BA81EF85F8892C8583
:1022D0003D854A855B85688579858E819F81A12CA6
:1022E000B12C6D017F010E8519D089819A81F5D0BD
:1022F00081E08B8302C08FEF8B838B8160960FB65A
:10230000F894DEBF0FBECDBFDF91CF910F91FF904C
:10231000EF90DF90CF90BF90AF900895AF92BF92B3
:10232000CF92DF92EF92FF920F93CF93DF93CDB7CF
:10233000DEB762970FB6F894DEBF0FBECDBF9D83A8
:102340008C837F836E83598748873B872A870C87D6
:10235000FE86ED86D88ACF86BA8AA98A8F85988923
:10236000FC018789908D28853985A90165EA70E08F
:102370000E94343A8F859889FC012789308D8885A1
:1023800099850197820F931F9B838A838E819F81FA
:10239000892B69F1198221C08981882F90E02981D8
:1023A000222F30E04E815F81240F351FF9014081DB
:1023B0002F853889820F931F4996FC0140838981BC
:1023C000882F90E02E813F81820F931FFC01808136
:1023D000882339F089818F5F898389818830E0F291
:1023E00001C000008F859889FC0110A204C08F8570
:1023F0009889FC01118E8C85843010F083E08C87E5
:102400008F8598892C85FC01268B8F8598892C8552
:10241000FC0123A38F859889FC0114A28F859889DC
:1024200002960E9440028F8598890C960E94400275
:102430008F8598892F853889FC01318720878C8585
:10244000882F90E024E030E0281B390B8F85988995
:10245000FC01358724878F8598892F853889FC0171
:10246000338B228B8F859889FC0116A215A28F854C
:102470009889FC0117A210A611A612A68F8598892B
:10248000FC0113A64A855B852C813D818A819B8155
:10249000B9010E9470039C018F859889FC013183EA
:1024A00020838D859E85892B39F08D859E852F858E
:1024B0003889FC0131832083000062960FB6F894BE
:1024C000DEBF0FBECDBFDF91CF910F91FF90EF9098
:1024D000DF90CF90BF90AF900895CF93DF931F927E
:1024E0001F92CDB7DEB79A8389830FB6F8940F9207
:1024F0008091A2078F5F8093A20780914A079091F5
:102500004B07892B61F489819A8190934B078093C3
:102510004A078091A2078130C1F494D416C08091FB
:10252000A607882391F480914A0790914B07FC01FC
:10253000268989819A81FC018689821730F08981F8
:102540009A8190934B0780934A078091AA078F5FE7
:102550008093AA072091AA0789819A81FC0121A36F
:1025600089819A81FC0196898091A507891730F4A9
:1025700089819A81FC0186898093A50789819A8146
:10258000AC014E5F5F4F89819A81FC018689282FBB
:1025900030E0C901880F991F880F991F880F991F74
:1025A000820F931F845B984FBA010E9453020F90D1
:1025B0000FBE8091A607882371F080914A07909101
:1025C0004B07FC01268989819A81FC01868928179D
:1025D00010F40E946C0500000F900F90DF91CF91D6
:1025E0000895CF93DF9300D0CDB7DEB79B838A8366
:1025F00019828A819B81892B41F056D08A819B81E7
:1026000060E00E94A01C5DD089838981882311F439
:102610000E946C0500000F900F900F90DF91CF91FA
:102620000895EF92FF920F93CF93DF931F92CDB750
:10263000DEB70F2EFDEAEF2EF7E0FF2EF02D00E0C3
:1026400020E030E040EC50E061E272E08EE491E0A6
:10265000F7DD89838981813019F40E941A1D8983ED
:1026600089818130C9F4F8948FEF9FEF9093AC0784
:102670008093AB0781E08093A6071092A407109285
:10268000A30780914A0790914B07FC0185A196A171
:102690000E949A010E94340500000F90DF91CF91B3
:1026A0000F91FF90EF900895CF93DF93CDB7DEB7F2
:1026B0008091AF078F5F8093AF070000DF91CF91CC
:1026C0000895CF93DF9300D01F92CDB7DEB71A8263
:1026D00019821B820FB6F8940F928091AF07815038
:1026E0008093AF078091AF07882309F075C0809170
:1026F000A207882309F470C049C080918B0790918C
:102700008C07FC01868197819A83898389819A81CC
:102710000C960E94190389819A8102960E941903DE
:1027200089819A81FC0196898091A507891730F4E7
:1027300089819A81FC0186898093A50789819A8184
:10274000AC014E5F5F4F89819A81FC018689282FF9
:1027500030E0C901880F991F880F991F880F991FB2
:10276000820F931F845B984FBA010E9453028981A4
:102770009A81FC01268980914A0790914B07FC01C0
:102780008689281718F081E08093A8078091860732
:10279000882309F0B2CF89819A81892B09F0DED391
:1027A0008091A7078C838C81882371F037D0882390
:1027B00019F081E08093A8078C8181508C838C81F3
:1027C0008823A1F71092A7078091A807882321F0FA
:1027D00081E08B830E946C050F900FBE8B810F9060
:1027E0000F900F900F90DF91CF910895CF93DF93CB
:1027F0001F921F92CDB7DEB70FB6F8940F9280915B
:10280000A3079091A4079A8389830F900FBE8981B3
:102810009A810F900F90DF91CF910895CF93DF931E
:10282000CDB7DEB729970FB6F894DEBF0FBECDBF88
:1028300019828091AF07882309F0C7C08091A30750
:102840009091A40701969B838A838A819B819093B0
:10285000A4078093A3078A819B81892BD1F480915F
:102860008207909183079D838C8380918407909148
:10287000850790938307809382078C819D81909335
:102880008507809384078091A9078F5F8093A907AC
:1028900065D38091AB079091AC072A813B812817C3
:1028A000390708F478C08091820790918307FC0172
:1028B0008081882339F48FEF9FEF9093AC0780934A
:1028C000AB0769C08091820790918307FC018581E5
:1028D0009681FC01868197819F838E838E819F8163
:1028E000FC0182819381998788872A813B81888531
:1028F00099852817390738F4888599859093AC070E
:102900008093AB0748C08E819F8102960E94190375
:102910008E819F81FC0184899589892B29F08E8184
:102920009F810C960E9419038E819F81FC019689DC
:102930008091A507891730F48E819F81FC018689DB
:102940008093A5078E819F81AC014E5F5F4F8E8182
:102950009F81FC018689282F30E0C901880F991FCB
:10296000880F991F880F991F820F931F845B984FC0
:10297000BA010E9453028E819F81FC0126898091B9
:102980004A0790914B07FC018689281708F48BCFE2
:1029900081E0898388CF80914A0790914B07FC01A1
:1029A0008689282F30E0C901880F991F880F991F49
:1029B000880F991F820F931F845B984FFC018081C1
:1029C000823040F081E0898305C08091A7078F5F46
:1029D0008093A7078091A807882311F081E089835D
:1029E000898129960FB6F894DEBF0FBECDBFDF9167
:1029F000CF910895CF93DF9300D000D0CDB7DEB74D
:102A00009C838B837E836D838B819C81892B39F49E
:102A100080914A0790914B079A83898304C08B81E8
:102A20009C819A8389830FB6F8940F9289819A8149
:102A30002D813E81FC0136A325A30F900FBE00001F
:102A400026960FB6F894DEBF0FBECDBFDF91CF91B3
:102A50000895CF93DF9300D0CDB7DEB78091AF0755
:102A6000882321F081E08093A80790C01092A807E6
:102A700080914A0790914B07FC0185A196A10E9485
:102A8000BA0180914A0790914B07FC012081318166
:102A900080914A0790914B07FC018789908D82179E
:102AA000930770F080914A0790914B079C01275E35
:102AB0003F4F80914A0790914B07B9010E949221A4
:102AC0008091A507898303C0898181508983898189
:102AD000282F30E0C901880F991F880F991F880F90
:102AE000991F820F931F845B984FFC01808188237C
:102AF00059F38981282F30E0C901880F991F880F69
:102B0000991F880F991F820F931F845B984F9B8397
:102B10008A838A819B81FC0181819281FC012281CF
:102B200033818A819B81FC01328321838A819B814D
:102B3000FC01218132818A819B8103962817390704
:102B400069F48A819B81FC0181819281FC0122814F
:102B500033818A819B81FC01328321838A819B811D
:102B6000FC0181819281FC018681978190934B07C2
:102B700080934A0789818093A50780914A079091A5
:102B80004B07FC0185A196A10E949A0100000F90BD
:102B90000F900F90DF91CF910895CF93DF9300D0E6
:102BA0001F92CDB7DEB79A8389837C836B83809134
:102BB0004A0790914B079C01245F3F4F89819A817E
:102BC000B9010E94A1028B819C8161E0B9D600000D
:102BD0000F900F900F900F90DF91CF910895CF93AA
:102BE000DF9300D01F921F92CDB7DEB79A838983FF
:102BF0007C836B834D8380914A0790914B079C01A6
:102C0000245F3F4F89819A81B9010E9453028D81CF
:102C1000882321F08FEF9FEF9C838B838B819C8196
:102C20006D818ED600000F900F900F900F900F9037
:102C3000DF91CF910895CF93DF9300D01F921F9221
:102C4000CDB7DEB79D838C838C819D81FC0185810E
:102C50009681FC01868197819B838A838A819B81EF
:102C60000C960E9419038091AF07882369F58A8129
:102C70009B8102960E9419038A819B81FC0196899F
:102C80008091A507891730F48A819B81FC01868990
:102C90008093A5078A819B81AC014E5F5F4F8A813B
:102CA0009B81FC018689282F30E0C901880F991F7C
:102CB000880F991F880F991F820F931F845B984F6D
:102CC000BA010E94530208C08A819B810C96BC0104
:102CD00086E897E00E9453028A819B81FC01268945
:102CE00080914A0790914B07FC018689821730F446
:102CF00081E0898381E08093A80701C019828981DE
:102D00000F900F900F900F900F90DF91CF9108953B
:102D1000CF93DF931F921F92CDB7DEB79A8389833B
:102D20002091A90789819A81FC0120832091A30722
:102D30003091A40789819A81FC01328321830000AC
:102D40000F900F90DF91CF910895CF93DF93CDB780
:102D5000DEB729970FB6F894DEBF0FBECDBF9F83B5
:102D60008E83798768870FB6F8940F928091A307B6
:102D70009091A4079B838A838E819F81FC0181812E
:102D800092812A813B81A901481B590BCA019D836D
:102D90008C8388859985FC0180819181019611F44D
:102DA000198239C08E819F81FC0190818091A90791
:102DB000981769F08E819F81FC01218132818A817F
:102DC0009B818217930718F081E0898324C088854E
:102DD0009985FC01208131818C819D818217930727
:102DE00098F488859985FC01208131818C819D81B1
:102DF000281B390B88859985FC01318320838E81BE
:102E00009F8186DF198207C088859985FC01118220
:102E1000108281E089830F900FBE898129960FB6B9
:102E2000F894DEBF0FBECDBFDF91CF910895CF9351
:102E3000DF93CDB7DEB781E08093A8070000DF9174
:102E4000CF910895CF93DF931F92CDB7DEB719824C
:102E500013C08981282F30E0C901880F991F880F7E
:102E6000991F880F991F820F931F845B984F0E94B0
:102E7000090289818F5F89838981843050F380E7DB
:102E800097E00E94090289E797E00E94090286E81C
:102E900097E00E9409028FE897E00E94090289E901
:102EA00097E00E94090280E797E090938307809360
:102EB000820789E797E09093850780938407000055
:102EC0000F90DF91CF910895CF93DF931F921F92C0
:102ED000CDB7DEB720C00FB6F8940F92809194075B
:102EE00090919507FC01868197819A8389838981D6
:102EF0009A8102960E9419038091A20781508093C3
:102F0000A207809198078150809398070F900FBE79
:102F100089819A810AD0809198078823E1F6000080
:102F20000F900F90DF91CF910895CF93DF931F9271
:102F30001F92CDB7DEB79A83898389819A81FC017C
:102F40008789908D0E94EF0189819A810E94EF010B
:102F500000000F900F90DF91CF910895CF93DF93F2
:102F60001F921F92CDB7DEB78091820790918307A1
:102F7000FC018081882339F48FEF9FEF9093AC0799
:102F80008093AB0715C08091820790918307FC0165
:102F900085819681FC01868197819A8389838981C5
:102FA0009A81FC01828193819093AC078093AB0757
:102FB00000000F900F90DF91CF910895CF93DF9392
:102FC0001F921F92CDB7DEB780914A0790914B07B1
:102FD0009A83898389819A810F900F90DF91CF9195
:102FE0000895CF93DF931F92CDB7DEB78091A607E8
:102FF000882319F481E0898308C08091AF07882372
:1030000019F482E0898301C0198289810F90DF91D0
:10301000CF910895CF93DF9300D01F921F92CDB729
:10302000DEB79D838C838C819D819B838A831982EB
:103030008C819D81892B09F490C08A819B81FC0140
:10304000268980914A0790914B07FC0186892817B1
:1030500008F075C08A819B81FC0184859585992340
:103060008CF080914A0790914B07FC018689882F4C
:1030700090E024E030E0281B390B8A819B81FC0121
:10308000358724878A819B81FC01428553858A810B
:103090009B81FC018689282F30E0C901880F991F88
:1030A000880F991F880F991F820F931F845B984F79
:1030B00048175907B9F58A819B8102960E94190326
:1030C00080914A0790914B07FC0126898A819B8158
:1030D000FC01268B8A819B81FC0196898091A50742
:1030E000891730F48A819B81FC0186898093A5072A
:1030F0008A819B81AC014E5F5F4F8A819B81FC017D
:103100008689282F30E0C901880F991F880F991FE1
:10311000880F991F820F931F845B984FBA010E94FA
:1031200053020AC080914A0790914B07FC012689FF
:103130008A819B81FC01268B81E089830EC08A8174
:103140009B81FC0123A180914A0790914B07FC01D0
:103150008689281710F481E0898389810F900F9068
:103160000F900F900F90DF91CF910895CF93DF9341
:1031700000D01F921F92CDB7DEB79D838C838C81C8
:103180009D819B838A8319828C819D81892B09F47F
:1031900061C08A819B81FC0184A12FEF280F8A8165
:1031A0009B81FC0124A38A819B81FC0126898A8161
:1031B0009B81FC0183A1281709F44CC08A819B8163
:1031C000FC0184A1882309F045C08A819B81029675
:1031D0000E9419038A819B81FC0123A18A819B8122
:1031E000FC01268B8A819B81FC018689882F90E0D7
:1031F00024E030E0281B390B8A819B81FC01358754
:1032000024878A819B81FC0196898091A507891773
:1032100030F48A819B81FC0186898093A5078A818D
:103220009B81AC014E5F5F4F8A819B81FC01868947
:10323000282F30E0C901880F991F880F991F880F28
:10324000991F820F931F845B984FBA010E9453020B
:1032500081E0898389810F900F900F900F900F90DC
:10326000DF91CF910895CF93DF93CDB7DEB7289745
:103270000FB6F894DEBF0FBECDBF9F838E836887E5
:103280008E819F819B838A8381E08C838E819F8145
:10329000892B09F47EC08A819B81FC0193A18885DA
:1032A000981718F48885898305C08A819B81FC0161
:1032B00083A189838A819B81FC01968989819817E2
:1032C00009F467C08A819B81FC0194A18C819817C5
:1032D00009F05FC08A819B81FC0186898D838A8188
:1032E0009B812981FC01268B8A819B81FC0184853D
:1032F0009585992364F08981882F90E024E030E05F
:10330000281B390B8A819B81FC01358724878A81A0
:103310009B81FC01428553858D81282F30E0C901B6
:10332000880F991F880F991F880F991F820F931F6D
:10333000845B984F4817590761F58A819B810296F3
:103340000E9419038A819B81FC0196898091A507BF
:10335000891730F48A819B81FC0186898093A507B7
:103360008A819B81AC014E5F5F4F8A819B81FC010A
:103370008689282F30E0C901880F991F880F991F6F
:10338000880F991F820F931F845B984FBA010E9488
:103390005302000028960FB6F894DEBF0FBECDBFD3
:1033A000DF91CF910895CF93DF93CDB7DEB78091B2
:1033B0004A0790914B07892B49F080914A079091D9
:1033C0004B07FC0124A12F5FFC0124A380914A0735
:1033D00090914B07DF91CF910895EF92FF920F9359
:1033E0001F93CF93DF93CDB7DEB72D970FB6F89429
:1033F000DEBF0FBECDBF6A837B838C839D832E830C
:103400003F83488759871B870A87FD86EC860FB65E
:10341000F8940F9280914A0790914B07FC0183A585
:10342000823059F160914A0770914B07FB0127A147
:1034300030A541A552A58A819B81AC81BD81809533
:103440009095A095B09582239323A423B523FB01E7
:1034500087A390A7A1A7B2A780914A0790914B0795
:1034600021E0FC0123A78C859D85892B31F08C857B
:103470009D8561E065D20E946C050F900FBE0FB66E
:10348000F8940F928A859B85892B81F080914A0759
:1034900090914B07FC0187A190A5A1A5B2A52A8513
:1034A0003B85F90180839183A283B38380914A078E
:1034B00090914B07FC0183A5823011F019821CC04A
:1034C00060914A0770914B07FB0127A130A541A5E8
:1034D00052A58E819F81A885B98580959095A095EC
:1034E000B09582239323A423B523FB0187A390A740
:1034F000A1A7B2A781E0898380914A0790914B07E9
:10350000FC0113A60F900FBE89812D960FB6F8947B
:10351000DEBF0FBECDBFDF91CF911F910F91FF9006
:10352000EF9008950F931F93CF93DF93CDB7DEB73E
:103530002D970FB6F894DEBF0FBECDBF9E838D834F
:103540004F83588769877A872B871D870C8781E08F
:1035500089838D819E819B838A830FB6F8940F9215
:103560008C859D85892B71F08A819B81FC0187A1C7
:1035700090A5A1A5B2A52C853D85F90180839183F5
:10358000A283B3838A819B81FC0183A58C838A817A
:103590009B8122E0FC0123A78B85882F90E082305D
:1035A000910531F18330910534F4009709F44FC04F
:1035B000019739F04DC08330910561F10497B1F165
:1035C00047C08A819B81FC0127A130A541A552A556
:1035D0008F819885A985BA85822B932BA42BB52B37
:1035E0002A813B81F90187A390A7A1A7B2A730C088
:1035F0008A819B81FC0187A190A5A1A5B2A5019616
:10360000A11DB11D2A813B81F90187A390A7A1A724
:10361000B2A71EC02A813B818F819885A985BA8572
:10362000F90187A390A7A1A7B2A712C08C8182300D
:1036300061F02A813B818F819885A985BA85F9013E
:1036400087A390A7A1A7B2A703C0198201C0000059
:103650008C818130D1F58A819B8102960E94190369
:103660008A819B81FC0196898091A507891730F496
:103670008A819B81FC0186898093A5078A819B8131
:10368000AC014E5F5F4F8A819B81FC018689282FA8
:1036900030E0C901880F991F880F991F880F991F63
:1036A000820F931F845B984FBA010E9453028A8154
:1036B0009B81FC01268980914A0790914B07FC0170
:1036C0008689821710F40E946C050F900FBE8981C5
:1036D0002D960FB6F894DEBF0FBECDBFDF91CF9110
:1036E0001F910F910895EF92FF920F931F93CF9325
:1036F000DF93CDB7DEB760970FB6F894DEBF0FBE8D
:10370000CDBF9F838E83488759876A877B872C87A5
:103710001E870D87F88AEF8681E089838E819F81DD
:103720009B838A831C828D859E85892B71F08A817B
:103730009B81FC0187A190A5A1A5B2A52D853E8501
:10374000F90180839183A283B3838A819B81FC01E9
:1037500083A58D838A819B8122E0FC0123A78C8530
:10376000882F90E08230910531F18330910534F457
:10377000009709F44FC0019739F04DC0833091058F
:1037800061F10497B1F147C08A819B81FC0127A1B7
:1037900030A541A552A588859985AA85BB85822B30
:1037A000932BA42BB52B2A813B81F90187A390A7EA
:1037B000A1A7B2A730C08A819B81FC0187A190A5F7
:1037C000A1A5B2A50196A11DB11D2A813B81F901D8
:1037D00087A390A7A1A7B2A71EC02A813B81888595
:1037E0009985AA85BB85F90187A390A7A1A7B2A750
:1037F00012C08D81823061F02A813B818885998554
:10380000AA85BB85F90187A390A7A1A7B2A703C08A
:10381000198201C000008D81813009F051C0809172
:10382000AF07882369F58A819B8102960E9419035C
:103830008A819B81FC0196898091A507891730F4C4
:103840008A819B81FC0186898093A5078A819B815F
:10385000AC014E5F5F4F8A819B81FC018689282FD6
:1038600030E0C901880F991F880F991F880F991F91
:10387000820F931F845B984FBA010E94530208C0C5
:103880008A819B810C96BC0186E897E00E945302D6
:103890008A819B81FC01268980914A0790914B0780
:1038A000FC018689821760F48F859889892B29F01D
:1038B0008F85988921E0FC01208381E08093A8070F
:1038C000898160960FB6F894DEBF0FBECDBFDF9141
:1038D000CF911F910F91FF90EF900895CF93DF93B9
:1038E00000D01F921F92CDB7DEB79D838C838C8151
:1038F0009D81892B29F480914A0790914B0702C042
:103900008C819D819B838A830FB6F8940F928A8164
:103910009B81FC0183A5823039F48A819B81FC0163
:1039200013A681E0898301C019820F900FBE89819F
:103930000F900F900F900F900F90DF91CF910895FF
:10394000CF93DF93CDB7DEB727970FB6F894DEBFDE
:103950000FBECDBF9E838D836F838091A30790910F
:10396000A4079A83898380914A0790914B07029616
:103970000E9419038D819E81019671F48F818823A5
:1039800059F080914A0790914B070296BC0189E952
:1039900097E00E94530244C029813A818D819E8123
:1039A000820F931F9C838B8380914A0790914B07D2
:1039B0002B813C81FC01338322832B813C818981D3
:1039C0009A812817390778F480914A0790914B071C
:1039D0009C012E5F3F4F8091840790918507B9012C
:1039E0000E94A1021DC080914A0790914B079C0143
:1039F0002E5F3F4F8091820790918307B9010E940B
:103A0000A1028091AB079091AC072B813C812817D4
:103A1000390730F48B819C819093AC078093AB077E
:103A2000000027960FB6F894DEBF0FBECDBFDF9122
:103A3000CF910895EF92FF920F93CF93DF931F9250
:103A4000CDB7DEB71982A4D38091C6079091C7077E
:103A5000892B91F00F2EF8ECEF2EF7E0FF2EF02DD2
:103A600006E020E030E045E550E066E272E080E606
:103A700091E00E942011898389810F90DF91CF917D
:103A80000F91FF90EF9008950F931F93CF93DF93C3
:103A9000CDB7DEB72F970FB6F894DEBF0FBECDBF00
:103AA00098878F8369875B874A873D872C871F8725
:103AB0000E8719828091C6079091C707892BC9F19B
:103AC00089858A838A859B859C838B838F81988552
:103AD0009E838D8389858630FCF483DA823071F48D
:103AE0008091C6079091C7074E855F85BE016E5FC6
:103AF0007F4F20E00E94C20789831BC08091C607C8
:103B00009091C707BE016E5F7F4F20E040E050E01C
:103B10000E94C20789830DC08091C6079091C70794
:103B20004C855D85BE016E5F7F4F20E00E946B0873
:103B3000898389812F960FB6F894DEBF0FBECDBF63
:103B4000DF91CF911F910F9108950F931F93CF9302
:103B5000DF93CDB7DEB727970FB6F894DEBF0FBE61
:103B6000CDBF9D838C837F836E838091C2079091AC
:103B7000C307FC0185819681FC01868197819A8328
:103B8000898389819A8102960E94190389819A8189
:103B9000FC018389882F90E084709927892BF9F0A4
:103BA00089819A81FC01248535858C819D81B901AB
:103BB000680F791F2C813D814E815F8189819A81B7
:103BC000E6D08823B1F04C815D8189819A8100E043
:103BD00010E020E030E060E057DF8B830AC089818D
:103BE0009A81FC018389282F2E7F89819A81FC018B
:103BF000238B89819A81FC012089318989819A816D
:103C0000F9011995000027960FB6F894DEBF0FBE94
:103C1000CDBFDF91CF911F910F910895CF93DF9387
:103C200000D000D0CDB7DEB79D838C836E830E9419
:103C30005413CE0103967CD09A8389838B81882389
:103C4000B1F58E81882381F42C813D8189819A810F
:103C50008217930748F00E94611329813A818C8171
:103C60009D81B90172DF25C08E81882359F0809132
:103C7000C4079091C507FC01908181E0992309F068
:103C800080E08E832C813D8189819A81281B390BAC
:103C90008091C6079091C7074E81B9010E942B0CF5
:103CA0000E946113882329F40E946C0502C00E94BF
:103CB0006113000026960FB6F894DEBF0FBECDBF8D
:103CC000DF91CF910895CF93DF9300D01F92CDB7AE
:103CD000DEB79C838B838091C2079091C307FC0160
:103CE000908181E0992309F080E0282F8B819C81CD
:103CF000FC0120838B819C81FC018081882369F4F5
:103D00008091C2079091C307FC0185819681FC01D7
:103D1000808191819A83898302C01A821982898164
:103D20009A810F900F900F900F90DF91CF9108958F
:103D3000CF93DF9300D01F92CDB7DEB79C838B83E8
:103D40000E94F6139A8389838091CA079091CB07CA
:103D500029813A812817390738F47CD18B819C81DD
:103D600021E0FC01208304C08B819C81FC01108236
:103D700089819A819093CB078093CA0789819A8120
:103D80000F900F900F900F90DF91CF910895CF93E8
:103D9000DF93CDB7DEB729970FB6F894DEBF0FBE1D
:103DA000CDBF9B838A837D836C835F834E833987FA
:103DB000288719828A819B812C813D81FC01338374
:103DC00022838A819B812A813B81FC013187208764
:103DD0002C813D818E819F8182179307F0F02E8187
:103DE0003F8188859985281B390B8A819B81FC013D
:103DF000848595852817390718F081E089832AC0C2
:103E00008A819B819C012E5F3F4F8091C4079091D6
:103E1000C507B9010E94A1021DC02E813F8188857E
:103E200099852817390750F42C813D81888599851B
:103E30002817390718F081E089830CC08A819B819B
:103E40009C012E5F3F4F8091C2079091C307B9013B
:103E50000E94A102898129960FB6F894DEBF0FBE99
:103E6000CDBFDF91CF9108950F931F93CF93DF9331
:103E7000CDB7DEB72B970FB6F894DEBF0FBECDBF20
:103E8000CEC08E8188230CF4CAC089859A859A8316
:103E9000898389819A81DC011A968D919C911B9767
:103EA000892B29F089819A8102960E941903CE01FB
:103EB0000B963EDF9C838B838E81082E000C990B22
:103EC000092E000CAA0BBB0B40E050E029E030E0CB
:103ED000841B950B2817390708F4A0C0FC0188271C
:103EE000EE58FF4F8F4F0C94013889819A81FC0165
:103EF0008389282F216089819A81DC0153962C9334
:103F0000EF81F8852F81388589819A81DC011C96A3
:103F10008D919C911D97B901680F791F4B815C8130
:103F200089819A819F0133DF882309F478C08981D0
:103F30009A81FC012089318989819A81F901199539
:103F400089819A81DC0153968C91882F90E084704E
:103F50009927892B09F463C02F81388589819A813B
:103F6000FC0184859585A901480F591F89819A8193
:103F700000E010E020E030E060E086DD8D834FC09F
:103F800089819A81DC0153968C91282F2E7F89811B
:103F90009A81FC01238B43C089819A81DC0153966D
:103FA0008C91282F216089819A81FC01238B2F819C
:103FB000388589819A81DC011D963C932E931C974C
:103FC00089819A81FC01248535858B819C81B90189
:103FD000680F791F2B813C814B815C8189819A819B
:103FE000D6DE1DC089819A81DC0153968C91882F81
:103FF00090E082709927892B29F489819A810E9407
:10400000EF010DC089819A81FC018389282F2E7FC1
:1040100089819A81DC0153962C9301C00000809124
:10402000C6079091C7079E012A5F3F4F40E050E0CE
:10403000B9010E94C908882309F023CF00002B96FC
:104040000FB6F894DEBF0FBECDBFDF91CF911F91A9
:104050000F9108950F931F93CF93DF93CDB7DEB7E2
:1040600029970FB6F894DEBF0FBECDBF68C0809110
:10407000C2079091C307FC0185819681FC01808174
:1040800091819A8389838091C2079091C307FC0133
:1040900085819681FC01868197819C838B838B81AE
:1040A0009C8102960E9419038B819C81FC012089CE
:1040B00031898B819C81F90119958B819C81FC014F
:1040C0008389882F90E084709927892BC1F18B8197
:1040D0009C81FC012485358589819A81820F931FFB
:1040E0009E838D832D813E8189819A8182179307DA
:1040F000D8F48B819C812D813E81FC013383228306
:104100008B819C812B813C81FC01318720878B81B5
:104110009C819C012E5F3F4F8091C2079091C30705
:10412000B9010E94A1020BC049815A818B819C81F7
:1041300000E010E020E030E060E0A6DC8F838091BA
:10414000C2079091C307FC018081882309F08FCFBB
:104150008091C2079091C307998788878091C4078F
:104160009091C5079093C3078093C207888599856E
:104170009093C5078093C407000029960FB6F89462
:10418000DEBF0FBECDBFDF91CF911F910F9108957C
:10419000CF93DF93CDB7DEB70FB6F8940F9280912F
:1041A000C6079091C707892BE9F480EB97E00E943E
:1041B000090289EB97E00E94090280EB97E0909357
:1041C000C3078093C20789EB97E09093C50780935C
:1041D000C40740E065E08AE00E94EA069093C707C2
:1041E0008093C6070F900FBE0000DF91CF91089516
:1041F000CF93DF93CDB7DEB70000DF91CF91089565
:10420000CF93DF93CDB7DEB72E970FB6F894DEBF0E
:104210000FBECDBF84E290E024E230E0F9012081BE
:104220002068FC01208385E290E025E230E0F9017E
:1042300020812068FC01208380E090E0A8E4B2E4C3
:1042400089839A83AB83BC8320E030E04AE755E45E
:1042500069817A818B819C810CD5DC01CB018D83B6
:104260009E83AF83B88720E030E040E85FE36D8154
:104270007E818F8198857CD488232CF481E090E026
:104280009A8789873BC020E03FEF4FE757E46D8175
:104290007E818F819885E9D418163CF520E030E0C6
:1042A00040E251E469817A818B819C81E2D4DC0116
:1042B000CB01BC01CD0160D4DC01CB019A87898799
:1042C0000FC080E991E09C878B878B859C85019747
:1042D000F1F79C878B8789859A8501979A878987CB
:1042E00089859A85892B69F713C06D817E818F81BD
:1042F000988542D4DC01CB019A87898789859A8584
:104300009E878D878D859E850197F1F79E878D8786
:1043100083E290E023E230E0F90120812068FC0193
:1043200020838ACFCF93DF93CDB7DEB762970FB6E6
:10433000F894DEBF0FBECDBF988B8F877A8B698BC9
:1043400084E290E024E230E0F90120812068FC0161
:10435000208385E290E025E230E0F90120812068A9
:10436000FC01208380E090E0AAEFB4E489839A8383
:10437000AB83BC8320E030E04AE755E469817A8171
:104380008B819C8176D4DC01CB018D839E83AF83AE
:10439000B88720E030E040E85FE36D817E818F8167
:1043A0009885E6D388232CF481E090E09A8789876A
:1043B0003BC020E03FEF4FE757E46D817E818F8166
:1043C000988553D418163CF520E030E040E251E4E3
:1043D00069817A818B819C814CD4DC01CB01BC0149
:1043E000CD01CAD3DC01CB019A8789870FC080E950
:1043F00091E09C878B878B859C850197F1F79C8743
:104400008B8789859A8501979A87898789859A8577
:10441000892B69F713C06D817E818F819885ACD31C
:10442000DC01CB019A87898789859A859E878D874C
:104430008D859E850197F1F79E878D8783E290E0B9
:1044400023E230E0F90120812068FC0120838ACF3B
:10445000CF93DF931F921F92CDB7DEB70E94E32D5B
:104460000E940F30292F2F938F938EE292E0892F95
:104470008F938EE292E08F930E94AC3A0F900F9050
:104480000F900F900E94102F0E940F30292F2F9312
:104490008F9381E492E0892F8F9381E492E08F9350
:1044A0000E94AC3A0F900F900F900F9082EE97E021
:1044B0000E94F52D8A838A810E940F309C0182EE32
:1044C00097E0892F8F9382EE97E08F93832F8F93BE
:1044D000822F8F938AE592E0892F8F938AE592E06D
:1044E0008F930E94AC3A0F900F900F900F900F9007
:1044F0000F9082EE97E00E94112E0E940F30292F1C
:104500002F938F9382EE97E0892F8F9382EE97E01F
:104510008F938EE692E0892F8F938EE692E08F93B1
:104520000E94AC3A0F900F900F900F900F900F9049
:1045300042EE57E063E872E084EA92E00E94EE2FD8
:104540000E940F30292F2F938F9382EE97E0892FAF
:104550008F9382EE97E08F9383E892E0892F8F9379
:1045600083E892E08F9384EA92E0892F8F9384EA24
:1045700092E08F9385EB92E0892F8F9385EB92E009
:104580008F930E94AC3A8DB79EB70A960FB6F894F7
:10459000DEBF0FBECDBF0E94442E0E940F30292FD8
:1045A0002F938F938BEE92E0892F8F938BEE92E077
:1045B0008F930E94AC3A0F900F900F900F9081E074
:1045C0000E94052F0E940F30292F2F938F938AEF7F
:1045D00092E0892F8F938AEF92E08F930E94AC3AFA
:1045E0000F900F900F900F9085E0898380E00E94DC
:1045F0004A2E8A838A810E940F309C018981882FEC
:1046000090E0432F4F932F93292F2F938F938BE17C
:1046100093E0892F8F938BE193E08F930E94AC3AC4
:104620000F900F900F900F900F900F908A8188300D
:1046300059F08FE290E00E94F112898181508983C4
:104640008981882399F601C000008A81883019F099
:104650000E946C05FDCF00000F900F90DF91CF916D
:104660000895EF92FF920F93CF93DF93CDB7DEB70C
:104670008091A2099091A309892BC1F481E00E9445
:10468000A4079093A3098093A2098091A209909115
:10469000A309892B59F08091A2099091A30920E0E8
:1046A00040E050E060E070E00E94C2078091AC09F9
:1046B0009091AD09892BC1F481E00E94A4079093E9
:1046C000AD098093AC098091AC099091AD09892B1B
:1046D00059F08091AC099091AD0920E040E050E0A4
:1046E00060E070E00E94C20740E062E081E00E946A
:1046F000EA069093A5098093A40940E062E081E076
:104700000E94EA069093AF098093AE0940E062E010
:1047100081E00E94EA069093A7098093A6090F2ED4
:10472000FAEAEF2EF9E0FF2EF02D02E020E030E073
:104730004CEE51E06BE373E088EB93E20E942011B2
:104740000F2EF8EAEF2EF9E0FF2EF02D02E020E028
:1047500030E04CEE51E066E573E08DE494E20E94B7
:1047600020110000DF91CF910F91FF90EF900895FD
:10477000CF93DF9300D000D0CDB7DEB79E838D837B
:1047800061E070E080E090E00E94FA141A821982E1
:104790001C821B825CD784E690E00E94F1126BD7EA
:1047A00084E690E00E94F112ACD79A83898387D780
:1047B0009C838B838091A2099091A3096FEF7FEF77
:1047C0000E94720989819A81292F2F938F938DE5F9
:1047D00093E0892F8F938DE593E08F930E94AC3AFD
:1047E0000F900F900F900F908B819C81292F2F930A
:1047F0008F938CE693E0892F8F938CE693E08F93D1
:104800000E94AC3A0F900F900F900F908091A209E8
:104810009091A30920E040E050E060E070E00E9449
:10482000C2078091A4099091A50920E040E050E0E2
:10483000BE016F5F7F4F0E94C2078091AE099091C9
:10484000AF09BE016D5F7F4F20E040E050E00E9465
:10485000C2073DD18091AC099091AD096FEF7FEF18
:104860000E9472098091A6099091A70920E040E07A
:1048700050E066E478E00E94C2078091AC09909114
:10488000AD0920E040E050E060E070E00E94C20727
:1048900088E59BE10E94F1127DCFCF93DF93CDB7E6
:1048A000DEB72B970FB6F894DEBF0FBECDBF9B8748
:1048B0008A8781E00E94CF2D82E090E00E94F11271
:1048C00080E00E94CF2D86E990E00E94F1120E94C4
:1048D0008C2DBEDD1D821C821F821E8219861886C9
:1048E0008091A4099091A5099E012A5F3F4F4FEF47
:1048F0005FEFB9010E94C90889838091AE09909148
:10490000AF099E01285F3F4F4FEF5FEFB9010E9453
:10491000C9088A838091A6099091A7099E012C5FFE
:104920003F4F4FEF5FEFB9010E94C9088B83809121
:10493000A2099091A3096FEF7FEF0E9472098E8107
:104940009F81292F2F938F938AE793E0892F8F934D
:104950008AE793E08F930E94AC3A0F900F900F90EC
:104960000F9088859985292F2F938F9387E993E05E
:10497000892F8F9387E993E08F930E94AC3A0F9031
:104980000F900F900F908C819D81292F2F938F93E3
:1049900081EB93E0892F8F9381EB93E08F930E94BB
:1049A000AC3A0F900F900F900F908091A2099091C8
:1049B000A30920E040E050E060E070E00E94C20700
:1049C00086E08093CD0781E08093CC078E819F8124
:1049D000892F99278093CE078E819F818093CF075F
:1049E00088859985892F99278093D007888599850F
:1049F0008093D1078C819D81892F99278093D2073D
:104A00008C819D818093D3078091A2099091A30905
:104A10006FEF7FEF0E9472096CEC77E081E00E94FB
:104A20006D2E0E940F30292F2F938F9386EC93E0E9
:104A3000892F8F9386EC93E08F930E94AC3A0F906E
:104A40000F900F900F908091A2099091A30920E000
:104A500040E050E060E070E00E94C20741CFCF9399
:104A6000DF931F921F92CDB7DEB79A8389838A8125
:104A70008F9389818F938BED93E0892F8F938BEDAB
:104A800093E08F930E94AC3A0F900F900F900F908D
:104A90008091AC099091AD096FEF7FEF0E94720990
:104AA00089819A8190934708809346088091AC0948
:104AB0009091AD0920E040E050E060E070E00E949D
:104AC000C20700000F900F90DF91CF910895CF9310
:104AD000DF9300D0CDB7DEB71A8219820E9467310A
:104AE0008B8300000F900F900F90DF91CF9108956E
:104AF000CF93DF93CDB7DEB76FE275E283E00E941C
:104B0000383180E05FD1789409D026D08BEE93E0E5
:104B10000E94BF3AA6DD0E941113FFCFCF93DF930F
:104B2000CDB7DEB77DD5882399F47AD5882F90E06C
:104B3000292F2F938F938BEF93E0892F8F938BEFF8
:104B400093E08F930E94AC3A0F900F900F900F90CC
:104B50000000DF91CF910895CF93DF93CDB7DEB7FB
:104B600087E0FFD481E0DFD70000DF91CF91089587
:104B70002FD008F481E0089557D088F09F5790F027
:104B8000B92F9927B751A0F0D1F0660F771F881F72
:104B9000991F1AF0BA95C9F712C0B13081F05ED0F2
:104BA000B1E008955BC0672F782F8827B85F39F090
:104BB000B93FCCF3869577956795B395D9F73EF4D1
:104BC00090958095709561957F4F8F4F9F4F089579
:104BD000990F0008550FAA0BE0E8FEEF161617060E
:104BE000E807F907C0F012161306E407F50798F076
:104BF000621B730B840B950B39F40A2661F0232B8F
:104C0000242B252B21F408950A2609F4A140A6950A
:104C10008FEF811D811D089557FD9058440F551F3A
:104C200059F05F3F71F04795880F97FB991F61F02E
:104C30009F3F79F087950895121613061406551FA5
:104C4000F2CF4695F1DF08C0161617061806991F11
:104C5000F1CF86957105610508940895E894BB2706
:104C600066277727CB0197F90895B2DF08F48FEF15
:104C700008950BD078C069D028F06ED018F0952335
:104C800009F05AC05FC01124EACFC6DFA0F3959F98
:104C9000D1F3950F50E0551F629FF001729FBB2723
:104CA000F00DB11D639FAA27F00DB11DAA1F649FCF
:104CB0006627B00DA11D661F829F2227B00DA11D82
:104CC000621F739FB00DA11D621F839FA00D611D08
:104CD000221F749F3327A00D611D231F849F600D29
:104CE000211D822F762F6A2F11249F5750408AF062
:104CF000E1F088234AF0EE0FFF1FBB1F661F771FEE
:104D0000881F91505040A9F79E3F510570F014C084
:104D1000A6CF5F3FECF3983EDCF3869577956795D9
:104D2000B795F795E7959F5FC1F7FE2B880F911D0B
:104D30009695879597F9089597F99F6780E870E0B1
:104D400060E008959FEF80EC089500240A94161601
:104D5000170618060906089500240A941216130669
:104D6000140605060895092E0394000C11F48823F7
:104D700052F0BB0F40F4BF2B11F460FF04C06F5F13
:104D80007F4F8F4F9F4F0895CF93DF931F92CDB7E3
:104D9000DEB7BE016F5F7F4F809148089091490850
:104DA0004DD18111F6CF898190E00F90DF91CF91A5
:104DB0000895682F8091480890914908CAD080E0F2
:104DC00090E008958F929F92AF92CF92EF920F93BF
:104DD000812C912C6894AA24A7F86894CC24C7F855
:104DE000E12C00E023E040E051EE60E070E013D001
:104DF0009093490880934808EAECF9E086E092E055
:104E000091838083938382830F91EF90CF90AF90B3
:104E10009F908F9008952F923F924F925F926F9242
:104E20007F928F929F92AF92CF92EF92FF920F93C9
:104E30001F93CF93DF93CDB7DEB7F82E2A013B0146
:104E400088E090E00E9423388C018F2D90E0880F3D
:104E5000991FFC01E65BF74F11830083FC01EC5EB8
:104E6000FD4F80819181D8018D939C936C2D70E0D2
:104E700084E090E00E9409381C0161E070E086E067
:104E800090E00E9409387C014C2DB1014BD3F80110
:104E9000F582E4826A2D70E084E090E00E94093897
:104EA0001C0161E070E086E090E00E9409387C011E
:104EB0004A2DB10137D3D8011396FC92EE92129786
:104EC00017969C928E921697FFB6F894ED91FC91EE
:104ED000119736978081826080838D909C90C3016A
:104EE000B2010E94193420E030E040E051E4C1DE1C
:104EF0009B01AC0160E074E284E79BE40E94A13373
:104F000020E030E040E85FE30E94353335DEF40115
:104F100032976083D801ED91FC911197359788E91C
:104F20008083ED91FC91349786E08083FFBEC801B9
:104F3000DF91CF911F910F91FF90EF90CF90AF90A5
:104F40009F908F907F906F905F904F903F902F90A9
:104F50000895CF93DF93EC01EA81FB8193818281F5
:104F60002581981B922384819817A1F0938126951F
:104F70002923A081B181A20FB11D6C939F5F258170
:104F800092239383E881F9813597808180628083C1
:104F900080E001C082E0DF91CF910895EF92FF920F
:104FA0000F931F93CF93DF937C01DC011296ED9159
:104FB000FC91139793818281981B8581982384812A
:104FC000891B861798F1662341F1842F952FDC0108
:104FD0006150462F50E04F5F5F4F480F591FE70168
:104FE000EA81FB81938182812581981B92238481B0
:104FF000981779F08C91938126952923608171818E
:105000008B01020F111DE80188839F5F8581982322
:1050100093831196A417B50711F7D701ED91FC9171
:10502000359780818062808380E001C082E0DF91DB
:10503000CF911F910F91FF90EF900895DC0114968E
:10504000ED91FC91159793818281981789F0928157
:10505000858186958923A081B181A80FB11D8C918E
:10506000DB018C939F5F85819823928380E0089574
:1050700083E008951F920F920FB60F9211240BB682
:105080000F922F933F934F935F936F937F938F93E1
:105090009F93AF93BF93CF93DF93EF93FF93A09131
:1050A0004A08B0914B08109711F16091C600149610
:1050B000ED91FC911597938182812581981B922314
:1050C0008481981761F0838126952823C081D1813E
:1050D000C20FD11D68838F5F9581892383831696C4
:1050E000ED91FC911797309711F0CD011995FF9133
:1050F000EF91DF91CF91BF91AF919F918F917F9170
:105100006F915F914F913F912F910F900BBE0F9038
:105110000FBE0F901F9018951F920F920FB60F920F
:1051200011240BB60F922F938F939F93AF93BF933E
:10513000EF93FF93E0914A08F0914B083097B9F054
:105140000280F381E02D938182819817B1F09281E2
:105150008581282F26952923A081B181A20FB11D19
:105160002C919F5F892382832093C6000BC0E1ECC2
:10517000F0E080818F7D808305C0E1ECF0E08081EC
:105180008F7D8083FF91EF91BF91AF919F918F9120
:105190002F910F900BBE0F900FBE0F901F90189580
:1051A0001F920F920FB60F9211240BB60F922F93EE
:1051B0003F934F935F936F937F938F939F93AF939F
:1051C000BF93CF93DF93EF93FF93A0914C08B091DF
:1051D0004D08109711F16091CE001496ED91FC915D
:1051E0001597938182812581981B9223848198173A
:1051F00061F0838126952823C081D181C20FD11D02
:1052000068838F5F9581892383831696ED91FC9146
:105210001797309711F0CD011995FF91EF91DF911C
:10522000CF91BF91AF919F918F917F916F915F913E
:105230004F913F912F910F900BBE0F900FBE0F908B
:105240001F9018951F920F920FB60F9211240BB654
:105250000F922F938F939F93AF93BF93EF93FF93EF
:10526000E0914C08F0914D083097B9F00280F3813D
:10527000E02D938182819817B1F092818581282F4A
:1052800026952923A081B181A20FB11D2C919F5F8A
:10529000892382832093CE000BC0E9ECF0E080816B
:1052A0008F7D808305C0E9ECF0E080818F7D808375
:1052B000FF91EF91BF91AF919F918F912F910F909F
:1052C0000BBE0F900FBE0F901F9018951F920F925C
:1052D0000FB60F9211240BB60F922F933F934F935B
:1052E0005F936F937F938F939F93AF93BF93CF936E
:1052F000DF93EF93FF93A0914E08B0914F08109762
:1053000011F16091D6001496ED91FC91159793815F
:1053100082812581981B92238481981761F0838173
:1053200026952823C081D181C20FD11D68838F5F4C
:105330009581892383831696ED91FC911797309779
:1053400011F0CD011995FF91EF91DF91CF91BF91B0
:10535000AF919F918F917F916F915F914F913F910D
:105360002F910F900BBE0F900FBE0F901F901895AE
:105370001F920F920FB60F9211240BB60F922F931C
:105380008F939F93AF93BF93EF93FF93E0914E085A
:10539000F0914F083097B9F00280F381E02D9381AE
:1053A00082819817B1F092818581282F2695292333
:1053B000A081B181A20FB11D2C919F5F89238283AF
:1053C0002093D6000BC0E1EDF0E080818F7D8083DB
:1053D00005C0E1EDF0E080818F7D8083FF91EF914A
:1053E000BF91AF919F918F912F910F900BBE0F9016
:1053F0000FBE0F901F9018951F920F920FB60F922D
:1054000011240BB60F922F933F934F935F936F939B
:105410007F938F939F93AF93BF93CF93DF93EF933C
:10542000FF93A0915008B0915108109711F160912D
:1054300036011496ED91FC91159793818281258117
:10544000981B92238481981761F0838126952823E5
:10545000C081D181C20FD11D68838F5F958189235F
:1054600083831696ED91FC911797309711F0CD013B
:105470001995FF91EF91DF91CF91BF91AF919F91DE
:105480008F917F916F915F914F913F912F910F90ED
:105490000BBE0F900FBE0F901F9018951F920F928A
:1054A0000FB60F9211240BB60F922F938F939F93E9
:1054B000AF93BF93EF93FF93E0915008F0915108A1
:1054C0003097B9F00280F381E02D938182819817A3
:1054D000B1F092818581282F26952923A081B18161
:1054E000A20FB11D2C919F5F8923828320933601E7
:1054F0000BC0E1E3F1E080818F7D808305C0E1E3B3
:10550000F1E080818F7D8083FF91EF91BF91AF911A
:105510009F918F912F910F900BBE0F900FBE0F9008
:105520001F901895FC01411102C00E944439842F3C
:1055300090E09C012150310982239323892B11F0A3
:105540000E944439413810F00E944439128213827B
:105550004483440F415045837183608380E090E031
:105560000895E0EBF9E020E930E33183208323E97B
:1055700030E3338322832EE930E33583248322EA28
:1055800030E33783268328EA30E33187208724EB12
:1055900030E33387228729EB30E33587248725ECF6
:1055A00030E33787268725EA30E3318B208B2AECDE
:1055B00030E3338B228B27ED30E3358B248B682F40
:1055C000CF0149C108956530F1F4FA0180818F73EC
:1055D00090E0982F88272181822B90931F0280933F
:1055E0001E028281F0E48F9FC0011124FA01238101
:1055F00026952695822B90931D0280931C0281E0B4
:10560000809352080895643051F080E090E49093C4
:105610001D0280931C0290931F0280931E02089526
:105620000F931F9303EE1AE220E034E244EF50E0C0
:1056300060E087E28DD6909354088093530821E070
:10564000892B09F020E0822F1F910F9108958091FE
:10565000530890915408009751F040E060E070E0EA
:10566000C8D6843031F41092520880E0089582E068
:10567000089583E00895809153089091540800970D
:1056800031F064E002D7853021F083E0089582E0B4
:10569000089580E0089560911E0270911F0280E0DD
:1056A00090E00E94193420E030E048EC52E4E1DA66
:1056B00020E038EF4FE756E40C94A1330895EBDF78
:1056C00020E030E040E251E4D4DA56DACB0108952C
:1056D00060911C0270911D0280E090E00E941934DC
:1056E00020E030E045E253E4C4DA20E038EF4FE751
:1056F00056E40E94A13320E030E040E252E4B5C716
:105700000895E6DF20E030E040E251E4B2DA0E94A2
:105710001234CB010895CF93DF9390E0FC01EE0F9C
:10572000FF1FE80FF91FEE0FFF1FEB5AF74F238102
:1057300021110AC0EF01E091B809F091B9096A811D
:1057400088819981199512C0DC01AA0FBB1FED0158
:10575000C80FD91FCC0FDD1FCB5AD74FE091C2091C
:10576000F091C3096A81888199811995DF91CF9160
:105770000895CF93DF9390E0FC01EE0FFF1FE80F39
:10578000F91FEE0FFF1FEB5AF74F238121110AC0BB
:10579000EF01E091C209F091C3096A818881998182
:1057A000199512C0DC01AA0FBB1FED01C80FD91F4C
:1057B000CC0FDD1FCB5AD74FE091B809F091B90952
:1057C0006A81888199811995DF91CF91089585E744
:1057D00094E00E94BF3A0F2EF0EBCF2EF9E0DF2EBF
:1057E000F02D04E0C5E5D8E010E08C81813069F04F
:1057F000E8F0823039F5D6011C96ED91FC911D97A9
:105800006A818881998119951DC08D818F5F8A3049
:1058100010F48D8317C01D82D6011C96ED91FC916A
:105820001D976A818881998119950CC08D81882383
:1058300031F0812F9EDF8D8181508D8303C00C83D9
:10584000812F69DF1F5F2696143079F685E090E09E
:105850000E94F112C7CFCF92DF92EF92FF920F9387
:105860001F93CF93DF93062F0F2EF0EBEF2EF9E06F
:10587000FF2EF02DD7011896ED91FC91199766E057
:1058800087E290E01995C5E5D8E00F2EF8E2CF2E1B
:10589000D12CF02DD982C88286E08A831B8214E045
:1058A0001C8380E038DFD7011896ED91FC911997A1
:1058B00067E087E290E01995DF82CE8287E08887F3
:1058C00019861A8781E027DFD7011896ED91FC91A0
:1058D000199765E083E390E01995D7011896ED914B
:1058E000FC91199761E084E390E0199584E390E0DE
:1058F0009D878C8785E08E871F86188B82E00BDF63
:10590000D7011896ED91FC91199764E081E091E040
:105910001995D7011896ED91FC91199761E082E0F5
:1059200091E0199582E091E09B8B8A8B1C8B1D8AFC
:105930001E8B83E0F0DEE12CF12C20E030E040EC27
:1059400050E06CE874E087EE9BE20E942011DF914A
:10595000CF911F910F91FF90EF90DF90CF9008951E
:105960000F931F93CF93DF931F921F92CDB7DEB794
:105970008C0119822DC0E091D108EC3250F481E005
:105980008E0F8093D108F0E0EF5FF64F8A8180831D
:1059900002C01092D1088A818A30D1F44091D10896
:1059A00050E0FA01E150F74F1082415051099E0139
:1059B0002F5F3F4F61E079E08091D2089091D3084A
:1059C0000E94620D898181110E946C051092D1089C
:1059D000BE016E5F7F4FC80131DB882361F20F90FB
:1059E0000F90DF91CF911F910F9108950F931F9307
:1059F000CF93DF938C01EB018091D2089091D30873
:105A00000E94BB0CB8018DE698E00E94463A2097B0
:105A100079F0EDE6F8E001900020E9F7319780E2B7
:105A200090E091838083BE018DE698E00E943B3A2E
:105A3000EDE6F8E0DF010D900020E9F711978DE029
:105A40009AE011969C938E9312961C9201900020DE
:105A5000E9F73197ED56F840AE2F8DE698E0AC01AE
:105A60006A2F8091D4089091D50898DA81110FC0DF
:105A700028E235E04DE250E06BE579E08091D20814
:105A80009091D3080E944A0E8BE599E002C080E015
:105A900090E0DF91CF911F910F910895AF92BF9247
:105AA000CF92DF92EF92FF920F931F93CF93DF93EA
:105AB0006C01FC0101900020E9F731977F01E81AA1
:105AC000F90A08E117E0C0E0D0E0F80160817181D7
:105AD000A701C6010E944D3A892B49F4FE01EE0F41
